{
  "_format": "hh-sol-artifact-1",
  "contractName": "SeedSecure",
  "sourceName": "contracts/SeedSecure.sol",
  "abi": [
    {
      "inputs": [],
      "stateMutability": "nonpayable",
      "type": "constructor"
    },
    {
      "anonymous": false,
      "inputs": [
        {
          "indexed": true,
          "internalType": "uint256",
          "name": "batchID",
          "type": "uint256"
        },
        {
          "indexed": false,
          "internalType": "string",
          "name": "seedType",
          "type": "string"
        },
        {
          "indexed": false,
          "internalType": "uint256",
          "name": "purityScore",
          "type": "uint256"
        }
      ],
      "name": "BatchCreated",
      "type": "event"
    },
    {
      "anonymous": false,
      "inputs": [
        {
          "indexed": true,
          "internalType": "uint256",
          "name": "batchID",
          "type": "uint256"
        },
        {
          "indexed": false,
          "internalType": "enum SeedSecure.BatchStatus",
          "name": "status",
          "type": "uint8"
        }
      ],
      "name": "BatchStatusUpdated",
      "type": "event"
    },
    {
      "anonymous": false,
      "inputs": [
        {
          "indexed": true,
          "internalType": "bytes32",
          "name": "childHash",
          "type": "bytes32"
        },
        {
          "indexed": false,
          "internalType": "string",
          "name": "latitude",
          "type": "string"
        },
        {
          "indexed": false,
          "internalType": "string",
          "name": "longitude",
          "type": "string"
        }
      ],
      "name": "LocationLocked",
      "type": "event"
    },
    {
      "anonymous": false,
      "inputs": [
        {
          "indexed": true,
          "internalType": "uint256",
          "name": "batchID",
          "type": "uint256"
        },
        {
          "indexed": false,
          "internalType": "bytes32",
          "name": "childHash",
          "type": "bytes32"
        },
        {
          "indexed": true,
          "internalType": "address",
          "name": "buyer",
          "type": "address"
        }
      ],
      "name": "SeedSold",
      "type": "event"
    },
    {
      "inputs": [
        {
          "internalType": "uint256",
          "name": "_batchID",
          "type": "uint256"
        }
      ],
      "name": "batches",
      "outputs": [
        {
          "internalType": "uint256",
          "name": "",
          "type": "uint256"
        },
        {
          "internalType": "string",
          "name": "",
          "type": "string"
        },
        {
          "internalType": "uint256",
          "name": "",
          "type": "uint256"
        },
        {
          "internalType": "address",
          "name": "",
          "type": "address"
        },
        {
          "internalType": "bool",
          "name": "",
          "type": "bool"
        },
        {
          "internalType": "enum SeedSecure.BatchStatus",
          "name": "",
          "type": "uint8"
        }
      ],
      "stateMutability": "view",
      "type": "function"
    },
    {
      "inputs": [
        {
          "internalType": "bytes32",
          "name": "",
          "type": "bytes32"
        }
      ],
      "name": "burnedChildPackets",
      "outputs": [
        {
          "internalType": "bool",
          "name": "",
          "type": "bool"
        }
      ],
      "stateMutability": "view",
      "type": "function"
    },
    {
      "inputs": [
        {
          "internalType": "uint256",
          "name": "_batchID",
          "type": "uint256"
        },
        {
          "internalType": "string",
          "name": "_seedType",
          "type": "string"
        },
        {
          "internalType": "uint256",
          "name": "_purityScore",
          "type": "uint256"
        }
      ],
      "name": "createBatch",
      "outputs": [],
      "stateMutability": "nonpayable",
      "type": "function"
    },
    {
      "inputs": [],
      "name": "manufacturer",
      "outputs": [
        {
          "internalType": "address",
          "name": "",
          "type": "address"
        }
      ],
      "stateMutability": "view",
      "type": "function"
    },
    {
      "inputs": [
        {
          "internalType": "bytes32",
          "name": "",
          "type": "bytes32"
        }
      ],
      "name": "packetLocations",
      "outputs": [
        {
          "internalType": "string",
          "name": "latitude",
          "type": "string"
        },
        {
          "internalType": "string",
          "name": "longitude",
          "type": "string"
        }
      ],
      "stateMutability": "view",
      "type": "function"
    },
    {
      "inputs": [
        {
          "internalType": "address",
          "name": "_newManufacturer",
          "type": "address"
        }
      ],
      "name": "transferManufacturer",
      "outputs": [],
      "stateMutability": "nonpayable",
      "type": "function"
    },
    {
      "inputs": [
        {
          "internalType": "uint256",
          "name": "_batchID",
          "type": "uint256"
        },
        {
          "internalType": "enum SeedSecure.BatchStatus",
          "name": "_newStatus",
          "type": "uint8"
        }
      ],
      "name": "updateBatchStatus",
      "outputs": [],
      "stateMutability": "nonpayable",
      "type": "function"
    },
    {
      "inputs": [
        {
          "internalType": "uint256",
          "name": "_batchID",
          "type": "uint256"
        },
        {
          "internalType": "bytes32",
          "name": "_childHash",
          "type": "bytes32"
        },
        {
          "internalType": "string",
          "name": "_lat",
          "type": "string"
        },
        {
          "internalType": "string",
          "name": "_lng",
          "type": "string"
        }
      ],
      "name": "verifyAndSell",
      "outputs": [],
      "stateMutability": "nonpayable",
      "type": "function"
    }
  ],
  "bytecode": "0x6080604052348015600f57600080fd5b50336000806101000a81548173ffffffffffffffffffffffffffffffffffffffff021916908373ffffffffffffffffffffffffffffffffffffffff1602179055506118108061005f6000396000f3fe608060405234801561001057600080fd5b50600436106100885760003560e01c8063b7604dd11161005b578063b7604dd11461012c578063c97f9f941461015d578063f33c7bcc14610179578063fb513a701461019557610088565b806352c88f361461008d57806374754282146100a95780638fa50009146100c7578063b32c4d8d146100f7575b600080fd5b6100a760048036038101906100a29190610bb4565b6101b1565b005b6100b1610312565b6040516100be9190610c35565b60405180910390f35b6100e160048036038101906100dc9190610c86565b610336565b6040516100ee9190610cce565b60405180910390f35b610111600480360381019061010c9190610ce9565b610356565b60405161012396959493929190610e2c565b60405180910390f35b61014660048036038101906101419190610c86565b6104bc565b604051610154929190610e94565b60405180910390f35b61017760048036038101906101729190611000565b6105f0565b005b610193600480360381019061018e919061109f565b6108aa565b005b6101af60048036038101906101aa919061113a565b610a74565b005b60008054906101000a900473ffffffffffffffffffffffffffffffffffffffff1673ffffffffffffffffffffffffffffffffffffffff163373ffffffffffffffffffffffffffffffffffffffff161461023f576040517f08c379a0000000000000000000000000000000000000000000000000000000008152600401610236906111d9565b60405180910390fd5b6000600160008481526020019081526020016000206000015403610298576040517f08c379a000000000000000000000000000000000000000000000000000000000815260040161028f90611245565b60405180910390fd5b806001600084815260200190815260200160002060030160006101000a81548160ff021916908360028111156102d1576102d0610db5565b5b0217905550817fcf4d4f3dcd5294f4d19269f489155c2187699f4a9fb9004b6a303752b00b282f826040516103069190611265565b60405180910390a25050565b60008054906101000a900473ffffffffffffffffffffffffffffffffffffffff1681565b60026020528060005260406000206000915054906101000a900460ff1681565b600060606000806000806000600160008981526020019081526020016000206040518060800160405290816000820154815260200160018201805461039a906112af565b80601f01602080910402602001604051908101604052809291908181526020018280546103c6906112af565b80156104135780601f106103e857610100808354040283529160200191610413565b820191906000526020600020905b8154815290600101906020018083116103f657829003601f168201915b50505050508152602001600282015481526020016003820160009054906101000a900460ff16600281111561044b5761044a610db5565b5b600281111561045d5761045c610db5565b5b81525050905060008082600001511415905081600001518260200151836040015160008054906101000a900473ffffffffffffffffffffffffffffffffffffffff16848660600151975097509750975097509750505091939550919395565b60036020528060005260406000206000915090508060000180546104df906112af565b80601f016020809104026020016040519081016040528092919081815260200182805461050b906112af565b80156105585780601f1061052d57610100808354040283529160200191610558565b820191906000526020600020905b81548152906001019060200180831161053b57829003601f168201915b50505050509080600101805461056d906112af565b80601f0160208091040260200160405190810160405280929190818152602001828054610599906112af565b80156105e65780601f106105bb576101008083540402835291602001916105e6565b820191906000526020600020905b8154815290600101906020018083116105c957829003601f168201915b5050505050905082565b6000600160008681526020019081526020016000206000015403610649576040517f08c379a000000000000000000000000000000000000000000000000000000000815260040161064090611245565b60405180910390fd5b60028081111561065c5761065b610db5565b5b6001600086815260200190815260200160002060030160009054906101000a900460ff16600281111561069257610691610db5565b5b146106d2576040517f08c379a00000000000000000000000000000000000000000000000000000000081526004016106c990611352565b60405180910390fd5b6002600084815260200190815260200160002060009054906101000a900460ff1615610733576040517f08c379a000000000000000000000000000000000000000000000000000000000815260040161072a9061140a565b60405180910390fd5b6000600360008581526020019081526020016000206000018054610756906112af565b905014610798576040517f08c379a000000000000000000000000000000000000000000000000000000000815260040161078f90611476565b60405180910390fd5b60016002600085815260200190815260200160002060006101000a81548160ff0219169083151502179055506040518060400160405280838152602001828152506003600085815260200190815260200160002060008201518160000190816108019190611642565b5060208201518160010190816108179190611642565b509050503373ffffffffffffffffffffffffffffffffffffffff16847f7219b6430241500ff28c661b9c23f4d119b2fc3271e617dfd62ce8b24114393e856040516108629190611723565b60405180910390a3827f37ea2d5b4c7d6aebfdafb3ac7e8ae92107065366950f70cbfd7d8389188dac05838360405161089c929190610e94565b60405180910390a250505050565b60008054906101000a900473ffffffffffffffffffffffffffffffffffffffff1673ffffffffffffffffffffffffffffffffffffffff163373ffffffffffffffffffffffffffffffffffffffff1614610938576040517f08c379a000000000000000000000000000000000000000000000000000000000815260040161092f906111d9565b60405180910390fd5b6000600160008581526020019081526020016000206000015414610991576040517f08c379a00000000000000000000000000000000000000000000000000000000081526004016109889061178a565b60405180910390fd5b6040518060800160405280848152602001838152602001828152602001600060028111156109c2576109c1610db5565b5b815250600160008581526020019081526020016000206000820151816000015560208201518160010190816109f79190611642565b506040820151816002015560608201518160030160006101000a81548160ff02191690836002811115610a2d57610a2c610db5565b5b0217905550905050827f58c168780de5fc719a1e7a85c7eca394e664c0e74b7c9ebc621f0b093112d04b8383604051610a679291906117aa565b60405180910390a2505050565b60008054906101000a900473ffffffffffffffffffffffffffffffffffffffff1673ffffffffffffffffffffffffffffffffffffffff163373ffffffffffffffffffffffffffffffffffffffff1614610b02576040517f08c379a0000000000000000000000000000000000000000000000000000000008152600401610af9906111d9565b60405180910390fd5b806000806101000a81548173ffffffffffffffffffffffffffffffffffffffff021916908373ffffffffffffffffffffffffffffffffffffffff16021790555050565b6000604051905090565b600080fd5b600080fd5b6000819050919050565b610b6c81610b59565b8114610b7757600080fd5b50565b600081359050610b8981610b63565b92915050565b60038110610b9c57600080fd5b50565b600081359050610bae81610b8f565b92915050565b60008060408385031215610bcb57610bca610b4f565b5b6000610bd985828601610b7a565b9250506020610bea85828601610b9f565b9150509250929050565b600073ffffffffffffffffffffffffffffffffffffffff82169050919050565b6000610c1f82610bf4565b9050919050565b610c2f81610c14565b82525050565b6000602082019050610c4a6000830184610c26565b92915050565b6000819050919050565b610c6381610c50565b8114610c6e57600080fd5b50565b600081359050610c8081610c5a565b92915050565b600060208284031215610c9c57610c9b610b4f565b5b6000610caa84828501610c71565b91505092915050565b60008115159050919050565b610cc881610cb3565b82525050565b6000602082019050610ce36000830184610cbf565b92915050565b600060208284031215610cff57610cfe610b4f565b5b6000610d0d84828501610b7a565b91505092915050565b610d1f81610b59565b82525050565b600081519050919050565b600082825260208201905092915050565b60005b83811015610d5f578082015181840152602081019050610d44565b60008484015250505050565b6000601f19601f8301169050919050565b6000610d8782610d25565b610d918185610d30565b9350610da1818560208601610d41565b610daa81610d6b565b840191505092915050565b7f4e487b7100000000000000000000000000000000000000000000000000000000600052602160045260246000fd5b60038110610df557610df4610db5565b5b50565b6000819050610e0682610de4565b919050565b6000610e1682610df8565b9050919050565b610e2681610e0b565b82525050565b600060c082019050610e416000830189610d16565b8181036020830152610e538188610d7c565b9050610e626040830187610d16565b610e6f6060830186610c26565b610e7c6080830185610cbf565b610e8960a0830184610e1d565b979650505050505050565b60006040820190508181036000830152610eae8185610d7c565b90508181036020830152610ec28184610d7c565b90509392505050565b600080fd5b600080fd5b7f4e487b7100000000000000000000000000000000000000000000000000000000600052604160045260246000fd5b610f0d82610d6b565b810181811067ffffffffffffffff82111715610f2c57610f2b610ed5565b5b80604052505050565b6000610f3f610b45565b9050610f4b8282610f04565b919050565b600067ffffffffffffffff821115610f6b57610f6a610ed5565b5b610f7482610d6b565b9050602081019050919050565b82818337600083830152505050565b6000610fa3610f9e84610f50565b610f35565b905082815260208101848484011115610fbf57610fbe610ed0565b5b610fca848285610f81565b509392505050565b600082601f830112610fe757610fe6610ecb565b5b8135610ff7848260208601610f90565b91505092915050565b6000806000806080858703121561101a57611019610b4f565b5b600061102887828801610b7a565b945050602061103987828801610c71565b935050604085013567ffffffffffffffff81111561105a57611059610b54565b5b61106687828801610fd2565b925050606085013567ffffffffffffffff81111561108757611086610b54565b5b61109387828801610fd2565b91505092959194509250565b6000806000606084860312156110b8576110b7610b4f565b5b60006110c686828701610b7a565b935050602084013567ffffffffffffffff8111156110e7576110e6610b54565b5b6110f386828701610fd2565b925050604061110486828701610b7a565b9150509250925092565b61111781610c14565b811461112257600080fd5b50565b6000813590506111348161110e565b92915050565b6000602082840312156111505761114f610b4f565b5b600061115e84828501611125565b91505092915050565b7f4f6e6c79206d616e7566616374757265722063616e20706572666f726d20746860008201527f697320616374696f6e0000000000000000000000000000000000000000000000602082015250565b60006111c3602983610d30565b91506111ce82611167565b604082019050919050565b600060208201905081810360008301526111f2816111b6565b9050919050565b7f426174636820646f6573206e6f74206578697374000000000000000000000000600082015250565b600061122f601483610d30565b915061123a826111f9565b602082019050919050565b6000602082019050818103600083015261125e81611222565b9050919050565b600060208201905061127a6000830184610e1d565b92915050565b7f4e487b7100000000000000000000000000000000000000000000000000000000600052602260045260246000fd5b600060028204905060018216806112c757607f821691505b6020821081036112da576112d9611280565b5b50919050565b7f536563757269747920416c6572743a20506172656e742062617463682068617360008201527f206e6f742072656163686564207468652072657461696c6572207965742e0000602082015250565b600061133c603e83610d30565b9150611347826112e0565b604082019050919050565b6000602082019050818103600083015261136b8161132f565b9050919050565b7f5741524e494e473a2046414b45204f52204455504c494341544520444554454360008201527f5445442e2054686973207061636b65742068617320616c72656164792062656560208201527f6e2076657269666965642e000000000000000000000000000000000000000000604082015250565b60006113f4604b83610d30565b91506113ff82611372565b606082019050919050565b60006020820190508181036000830152611423816113e7565b9050919050565b7f4c6f636174696f6e20616c7265616479206c6f636b6564000000000000000000600082015250565b6000611460601783610d30565b915061146b8261142a565b602082019050919050565b6000602082019050818103600083015261148f81611453565b9050919050565b60008190508160005260206000209050919050565b60006020601f8301049050919050565b600082821b905092915050565b6000600883026114f87fffffffffffffffffffffffffffffffffffffffffffffffffffffffffffffffff826114bb565b61150286836114bb565b95508019841693508086168417925050509392505050565b6000819050919050565b600061153f61153a61153584610b59565b61151a565b610b59565b9050919050565b6000819050919050565b61155983611524565b61156d61156582611546565b8484546114c8565b825550505050565b600090565b611582611575565b61158d818484611550565b505050565b5b818110156115b1576115a660008261157a565b600181019050611593565b5050565b601f8211156115f6576115c781611496565b6115d0846114ab565b810160208510156115df578190505b6115f36115eb856114ab565b830182611592565b50505b505050565b600082821c905092915050565b6000611619600019846008026115fb565b1980831691505092915050565b60006116328383611608565b9150826002028217905092915050565b61164b82610d25565b67ffffffffffffffff81111561166457611663610ed5565b5b61166e82546112af565b6116798282856115b5565b600060209050601f8311600181146116ac576000841561169a578287015190505b6116a48582611626565b86555061170c565b601f1984166116ba86611496565b60005b828110156116e2578489015182556001820191506020850194506020810190506116bd565b868310156116ff57848901516116fb601f891682611608565b8355505b6001600288020188555050505b505050505050565b61171d81610c50565b82525050565b60006020820190506117386000830184611714565b92915050565b7f426174636820494420616c726561647920657869737473000000000000000000600082015250565b6000611774601783610d30565b915061177f8261173e565b602082019050919050565b600060208201905081810360008301526117a381611767565b9050919050565b600060408201905081810360008301526117c48185610d7c565b90506117d36020830184610d16565b939250505056fea2646970667358221220b10663a4eb2830701f4265892c5451464075370cdd865abbbe0464b802786dab64736f6c634300081c0033",
  "linkReferences": {},
  "deployedLinkReferences": {}
}